S012000073696D6F6E5F67616D652E73726563F3
S11300000C942A000C9447000C9447000C94FC00B8
S11300100C9447000C9447000C9447000C94470040
S11300200C9447000C9447000C9447000C94470030
S11300300C9447000C9447000C9447000C94470020
S11300400C9447000C9447000C9447000C94470010
S11300500C94470011241FBECFE5D8E0DEBFCDBF0E
S113006010E0A0E6B0E0E4EDFBE002C005900D92E4
S1130070AA3BB107D9F721E0AAEBB0E001C01D9279
S1130080AC3BB207E1F70E94C3010C94E8050C9461
S11300900000FC010FB6F8946091B8017091B901A9
S11300A08091BA019091BB010FBE309721F060831B
S11300B07183828393830895CF93DF9380E090E0EC
S11300C00E944900CB010E949002C0E0D0E014C01D
S11300D00E948B0283709078992324F401978C6F8B
S11300E09F6F0196FE01E254FF4F91E001C0990F0A
S11300F08A95EAF790832196CA3FD1054CF3DF91A4
S1130100CF9108952FEF86E191E1215080409040F6
S1130110E1F700C00000089585BB82B38F7782BBEE
S113012082B38F7B82BB82B3806282BB82E08A957A
S1130130F1F700C082B38F7D82BB87EC90E001971A
S1130140F1F700C00000089585BB82B3806882BBCC
S113015082B38F7B82BB82B3806282BB82E08A954A
S1130160F1F700C082B38F7D82BB87EC90E00197EA
S1130170F1F700C0000008958FEF84BB80EF81BBCE
S113018082B38F7D82BB8FE99FE00197F1F700C0B6
S1130190000088E30E948C008EE00E948C0081E0C5
S11301A00E948C008FE99FE00197F1F700C00000E6
S11301B086E00E948C00089581E00E948C008FE903
S11301C09FE00197F1F700C0000086E00E948C00D8
S11301D008950F931F93CF938C01C0E003C00E9436
S11301E0A400CF5FF801EC0FF11D80818111F7CFDE
S11301F0CF911F910F9108951F920F920FB60F92F6
S113020011240F931F932F933F934F935F936F93F7
S11302107F938F939F93AF93BF93EF93FF93CF936A
S1130220DF93CDB7DEB7E297DEBFCDBFB49B06C088
S11302308BB381608BBB01E010E01AC0B59B06C094
S11302408BB382608BBB02E010E012C0B69B06C089
S11302508BB384608BBB04E010E00AC0B79B06C07C
S11302608BB388608BBB08E010E002C000E010E0B4
S11302700E9482001BBA8091BC009091BD00FC01D9
S1130280E254FF4F208130E002171307E1F10E948E
S1130290DC0086E690E00E94E90080EC0E948C007D
S11302A0809164009091650001979F938F9381E7FB
S11302B090E09F938F938E010F5F1F4F1F930F93B7
S11302C00E949B02C8010E94E900109265001092EE
S11302D064001092BD001092BC0081E090E0909305
S11302E0BB008093BA002FEF89E698E1215080404B
S11302F09040E1F700C000000F900F900F900F9016
S11303000F900F9025C001969093BD008093BC0080
S1130310209164003091650082179307C9F481E04D
S113032090E09093BB008093BA000E94DC0080E8C8
S113033090E00E94E90080EC0E948C0086E890E046
S11303400E94E9000E9482001092BD001092BC003D
S1130350E2960FB6F894DEBF0FBECDBFDF91CF910A
S1130360FF91EF91BF91AF919F918F917F916F9189
S11303705F914F913F912F911F910F910F900FBE5D
S11303800F901F901895CF93DF93CDB7DEB7E29708
S11303900FB6F894DEBF0FBECDBF8FEF8ABB17BA7E
S11303A080E484BF80E28BBF78940E945C000E944A
S11303B0BC0056C00E94DC0081E990E00E94E90084
S11303C0F12C0BC00E948200F801E254FF4F80819F
S11303D08BBB0E9482001BBAF3940F2D10E0809116
S11303E06400909165000817190764F30E94820065
S11303F01BBA0E94DC008FE990E00E94E90080ECC7
S11304000E948C00809164009091650001979F93F5
S11304108F9386E790E09F938F938E010F5F1F4F1A
S11304201F930F930E949B02C8010E94E9000F9042
S11304300F900F900F900F900F908091BA009091B1
S1130440BB00892BD1F31092BB001092BA008091AB
S11304506400909165000196909365008093640018
S113046080916400909165008B3F91050CF4A2CFBC
S11304700E94DC0089EA90E00E94E900FFCF8F929D
S11304809F92AF92BF92CF92DF92EF92FF92CF935F
S1130490DF93EC01688179818A819B816115710503
S11304A08105910521F464E279ED8BE597E02DE176
S11304B033EF41E050E00E944E0549015A019B018F
S11304C0AC01A7EAB1E40E946D056B017C01ACEEBE
S11304D0B4EFA50194010E947B05DC01CB018C0DD6
S11304E09D1DAE1DBF1DB7FF03C00197A109B048F4
S11304F088839983AA83BB839F77DF91CF91FF90F1
S1130500EF90DF90CF90BF90AF909F908F90089521
S11305100E943F02089580E690E00E943F02089501
S1130520A0E0B0E08093600090936100A09362002B
S1130530B09363000895AEE0B0E0E1EAF2E00C9419
S11305408E050D891E8986E08C831A8309838FEFBB
S11305509FE79E838D83AE01475E5F4F6F89788DE1
S1130560CE0101960E94BD02EF81F885E00FF11FD4
S113057010822E96E4E00C94AA05ABE0B0E0E3EC24
S1130580F2E00C9480056C017B018A01FC01178266
S11305901682838181FFCCC1CE0101963C01F60114
S11305A09381F70193FD859193FF81917F018823C6
S11305B009F4BAC1853239F493FD859193FF819191
S11305C07F01853229F4B60190E00E94B404E7CF9C
S11305D0912C212C312CFFE1F315D8F08B3279F0DA
S11305E038F4803279F08332A1F4232D20611DC0C8
S11305F08D3261F0803369F4232D216016C0832D80
S11306008260382EE32DE4603E2E2AC0F32DF8607C
S11306101DC037FC2DC020ED280F2A3040F08E324B
S1130620B9F436FC81C1232D2064322E19C036FE64
S113063006C08AE0989E200D1124922E11C0EAE093
S11306402E9E200D1124222EF32DF0623F2E08C081
S11306508C3621F4832D8068382E02C0883641F40C
S1130660F70193FD859193FF81917F018111B3CFB0
S1130670982F9F7D9554933028F40C5F1F4F9FE370
S113068099830DC0833631F0833771F0833509F0D7
S113069059C021C0F801808189830E5F1F4F8824CF
S11306A08394912C530113C02801F2E04F0E511C86
S11306B0F801A080B18036FE03C0692D70E002C04D
S11306C06FEF7FEFC5010E94A9044C018201F32D55
S11306D0FF773F2E16C0280122E0420E511CF8017C
S11306E0A080B18036FE03C0692D70E002C06FEFB8
S11306F07FEFC5010E949E044C01F32DF0683F2E4C
S1130700820133FC1BC0822D90E088169906B0F458
S1130710B60180E290E00E94B4042A94F4CFF5017B
S113072037FC859137FE81915F01B60190E00E940C
S1130730B40421102A9421E0821A910881149104AE
S113074071F7E8C0843611F0893641F5F80137FEB7
S113075007C060817181828193810C5F1F4F08C043
S113076060817181072E000C880B990B0E5F1F4F5F
S1130770F32DFF763F2E97FF09C0909580957095D5
S113078061957F4F8F4F9F4FF0683F2E2AE030E0F6
S1130790A3010E94F004882E861845C0853731F4E1
S11307A0232D2F7EB22E2AE030E025C0932D997F91
S11307B0B92E8F36C1F018F4883579F0B5C080377A
S11307C019F0883721F0B0C0E92FE061BE2EB4FEE5
S11307D00DC0FB2DF460BF2E09C034FE0AC0292FC2
S11307E02660B22E06C028E030E005C020E130E0EB
S11307F002C020E132E0F801B7FE07C060817181D8
S1130800828193810C5F1F4F06C06081718180E0FB
S113081090E00E5F1F4FA3010E94F004882E8618FB
S1130820FB2DFF773F2E36FE0DC0232D2E7FA22EEB
S1130830891458F434FE0BC032FC09C0832D8E7E1B
S1130840A82E05C0B82CA32C03C0B82C01C0B92C09
S1130850A4FE0FC0FE01E80DF11D8081803321F458
S11308609A2D997EA92E09C0A2FE06C0B394B39412
S113087004C08A2D867809F0B394A3FC11C0A0FEAD
S113088006C0B21488F4280C922C9B180EC0B21423
S113089060F4B60180E290E00E94B404B394F7CF10
S11308A0B21418F42B1802C0982C212CA4FE10C0EA
S11308B0B60180E390E00E94B404A2FE17C0A1FC3C
S11308C003C088E790E002C088E590E0B6010CC060
S11308D08A2D867859F0A1FE02C08BE201C080E225
S11308E0A7FC8DE2B60190E00E94B404891438F4A8
S11308F0B60180E390E00E94B4049A94F7CF8A94FE
S1130900F301E80DF11D8081B60190E00E94B4046A
S11309108110F5CF222009F442CEB60180E290E0A6
S11309200E94B4042A94F6CFF6018681978102C00E
S11309308FEF9FEF2B96E2E10C949C05FC01059050
S1130940615070400110D8F7809590958E0F9F1FCD
S11309500895FC016150704001900110D8F7809512
S113096090958E0F9F1F08950F931F93CF93DF933E
S1130970FB01238121FD03C08FEF9FEF2CC022FFD9
S113098016C046815781248135814217530744F4A8
S1130990A081B1819D012F5F3F4F318320838C93D0
S11309A0268137812F5F3F4F3783268314C08B0105
S11309B0EC01FB010084F185E02D0995892BE1F61A
S11309C0D80116968D919C911797019617969C9332
S11309D08E931697CE01DF91CF911F910F910895B9
S11309E0FA01AA27283051F1203181F1E8946F935C
S11309F06E7F6E5F7F4F8F4F9F4FAF4FB1E03ED002
S1130A00B4E03CD0670F781F891F9A1FA11D680F9F
S1130A10791F8A1F911DA11D6A0F711D811D911DD2
S1130A20A11D20D009F468943F912AE0269F112447
S1130A303019305D3193DEF6CF010895462F4770AB
S1130A40405D4193B3E00FD0C9F7F6CF462F4F7006
S1130A50405D4A3318F0495D31FD4052419302D064
S1130A60A9F7EACFB4E0A69597958795779567950A
S1130A70BA95C9F700976105710508959B01AC010A
S1130A800A2E06945795479537952795BA95C9F731
S1130A90620F731F841F951FA01D0895052E97FBD9
S1130AA01EF400940E94650557FD07D00E94B70507
S1130AB007FC03D04EF40C94650550954095309591
S1130AC021953F4F4F4F5F4F0895909580957095B6
S1130AD061957F4F8F4F9F4F08950E94D905A59F21
S1130AE0900DB49F900DA49F800D911D1124089525
S1130AF0B7FF0C946D050E946D05821B930B08953E
S1130B002F923F924F925F926F927F928F929F9219
S1130B10AF92BF92CF92DF92EF92FF920F931F9307
S1130B20CF93DF93CDB7DEB7CA1BDB0B0FB6F894B8
S1130B30DEBF0FBECDBF09942A88398848885F84F8
S1130B406E847D848C849B84AA84B984C884DF8069
S1130B50EE80FD800C811B81AA81B981CE0FD11D4D
S1130B600FB6F894DEBF0FBECDBFED010895A1E22C
S1130B701A2EAA1BBB1BFD010DC0AA1FBB1FEE1F13
S1130B80FF1FA217B307E407F50720F0A21BB30B5E
S1130B90E40BF50B661F771F881F991F1A9469F7DA
S1130BA060957095809590959B01AC01BD01CF0136
S1130BB00895A29FB001B39FC001A39F700D811D32
S1130BC01124911DB29F700D811D1124911D089552
S1070BD0F894FFCFC3
S1130BD401000000010047414D4520495320555070
S1130BE400594F5552204C4556454C3A2025640033
S1130BF45249474854004E455854204C4556454C98
S1130C04004C4541524E205041545445524E0059D3
S1130C144F55522054494D4500574F5720494D5084
S10D0C244F535349424C4521000090
S9030000FC
